:060000000A128A110C280F
:10000800FE00030EF0000A08F1000A128A111328F4
:100018000A128A110F2883010A128A11542883129E
:1000280003138C1D18281928332883160313941AD0
:100038001E281F282F28141D222823282F28831222
:1000480003131308060893001416831603131418D1
:100058002E282F2829288312031314168C117108AF
:100068008A00700E8300FE0E7E0E0900F2007208F0
:1000780083160313930080309400363083120313E1
:1000880094000130831603139100871507168B1708
:100098000B17831203138C11831603138C15080096
:1000A800FF30831603138600811340300A128A1129
:0E00B8003A200A128A115F280A128A110C28B7
:08400000FF3FFF3FFF3FFF3FC0
:02400E00793FF8
:00000001FF
