:040000009EEF3FF040
:107F1C00FF0001E3C78000FFFF0100E6E60001FF60
:107F2C00FF7F7B01007F7FFFE3C1810381C1E3FF02
:107F3C001C0EF66E7F0EF76E000EF86E00EE01F062
:107F4C0010EE20F00900F5CFEEFFE550E150FAE11C
:107F5C000001B1EF3FF0000E816E000E8A6E000E34
:107F6C00836E000E8C6E000E956E000E936E190EC5
:107F7C00216E000E226EC7EC3FF0BDEF3FF000EF1C
:107F8C0000F0000E266E000E256E26BED7EF3FF0D9
:107F9C00265009E1080E255CD8A0D7EF3FF0D9EFA9
:107FAC003FF0DBEF3FF0FFEF3FF025502124D96E7F
:107FBC0026502220DA6EDF50816E25C023F0010E90
:107FCC00246E232AECEF3FF0D8902436232EEAEFD0
:107FDC003FF02450836E070E236E7D0EE82EFED7E5
:107FEC00232EFCD700F0000E836E254A262ACBEFF9
:047FFC003FF0120040
:020000040020DA
:08000000FFFFFFFFFFFFFFFF00
:020000040030CA
:0E000000000C191EFF8080FF0FC00FE00F40A4
:00000001FF
