:060000000A128A11FC2F18
:100ED6000A128A1194270A128A118316031311140F
:100EE60008000A128A1194270A128A11831603131C
:100EF600111508000A128A1194270A128A118316FC
:100F06000313911611160800283083120313940058
:100F16008316031391019401273093008715071652
:100F26000800831603131419992F9A2F942F11086A
:100F36001F39031D9F2FA02F942F0800F0000A12BF
:100F46008A1194270A128A117008831203139300D8
:100F56000A128A1194270A128A1108000A128A11A3
:100F660094270A128A118316031391150A128A11FD
:100F760094270A128A11831203131308F0000A1227
:100F86008A117D270A128A11700808008316031336
:100F960088018312031388010A128A1187270A120D
:100FA6008A110A128A116B270A128A1141300A1213
:100FB6008A11A1270A128A110A128A11B1270A1266
:100FC6008A118312031388000A128A1174270A12DF
:100FD6008A110330F3000830F2007730F100F10B8C
:100FE600F22FF20BF22FF30BF22FD42F0A128A11E3
:0A0FF600002883010A128A11C92F96
:08400000FF3FFF3FFF3FFF3FC0
:02400E00793FF8
:00000001FF
