:0400000018EF3FF0C6
:107E3000000148EF3FF0829494940C0EBD6E000E4A
:107E4000BE6E9E92050ECA6ECB68120001500210E3
:107E5000D8A42DEF3FF02FEF3FF033EF3FF08280BB
:107E6000829235EF3FF08290828212000138F00B4F
:107E7000300B0C09BD6E01C003F002C004F0D890B5
:107E800004320332D890043203320350BE6E120023
:107E9000000E816E000E836E010E956E000E946EC4
:107EA0001BEC3FF083A057EF3FF059EF3FF061EF3D
:107EB0003FF0000E026E010E016E26EC3FF067EF00
:107EC0003FF0000E026E000E016E26EC3FF083A222
:107ED0006CEF3FF06EEF3FF08BEF3FF083B473EF4A
:107EE0003FF075EF3FF08BEF3FF083B67AEF3FF056
:107EF0007CEF3FF08BEF3FF083B881EF3FF083EFF3
:107F00003FF08BEF3FF0000E026E000E016E36EC7C
:107F10003FF0F4EF3FF083B290EF3FF092EF3FF08D
:107F2000AFEF3FF083A497EF3FF099EF3FF0AFEF53
:107F30003FF083B69EEF3FF0A0EF3FF0AFEF3FF092
:107F400083B8A5EF3FF0A7EF3FF0AFEF3FF0010E92
:107F5000026EF40E016E36EC3FF0F4EF3FF083B2A8
:107F6000B4EF3FF0B6EF3FF0D3EF3FF083B4BBEF99
:107F70003FF0BDEF3FF0D3EF3FF083A6C2EF3FF0FD
:107F8000C4EF3FF0D3EF3FF083B8C9EF3FF0CBEF42
:107F90003FF0D3EF3FF0030E026E840E016E36EC1D
:107FA0003FF0F4EF3FF083B2D8EF3FF0DAEF3FF06D
:107FB00083EF3FF083B4DFEF3FF0E1EF3FF083EF7B
:107FC0003FF083B6E6EF3FF0E8EF3FF083EF3FF09E
:107FD00083A8EDEF3FF0EFEF3FF083EF3FF0030EAC
:107FE000026E016836EC3FF0070E056E7D0EE82E3E
:107FF000FED7052EFCD700F052EF3FF000EF00F067
:020000040020DA
:08000000FFFFFFFFFFFFFFFF00
:020000040030CA
:0E000000000C191FFF8385FF0FC00FE00F409B
:00000001FF
