:040000008EEF3FF050
:107F1200C0F9A4B0999282F88090120EF66E7F0E8C
:107F2200F76E000EF86E00EE01F010EE0AF0090096
:107F3200F5CFEEFFE550E150FAE10001A1EF3FF08D
:107F4200000E816E000E8A6E000E836E000E8C6E25
:107F5200000E956E010E936E81AEB2EF3FF0B4EF5C
:107F62003FF0DDEF3FF0000E0E6E000E0D6E010EC3
:107F72000D24D96E000E0E20DA6EDF50836E030ED2
:107F82000C6E8A0E0B6E560EE82EFED70B2EFCD709
:107F92000C2EFAD70D4A0E2A0EBED9EF3FF00E5024
:107FA20009E10A0E0D5CD8A0D9EF3FF0DBEF3FF0FC
:107FB200B8EF3FF0FEEF3FF0000E106E090E0F6EAD
:107FC200010E0F24D96E000E1020DA6EDF50836E80
:107FD200030E0C6E8A0E0B6E560EE82EFED70B2E7B
:107FE200FCD70C2EFAD70F06D8A0100610BEFEEF53
:0E7FF2003FF0FCEF3FF0E1EF3FF000EF00F05A
:020000040020DA
:08000000FFFFFFFFFFFFFFFF00
:020000040030CA
:0E000000000C191EFF8080FF0FC00FE00F40A4
:00000001FF
