:040000007DEF3FF061
:107EFA00000190EF3FF081A085EF3FF087EF3FF060
:107F0A008BEF3FF0A0EC3FF080EF3FF0D0EC3FF07A
:107F1A0080EF3FF01200000E816E000E8A6E000E96
:107F2A00836E000E8C6E000E956E010E936E80ECC1
:107F3A003FF000EF00F0010E036E000E056E000E1A
:107F4A00046E04C001F003C002F0012AAFEF3FF053
:107F5A00D8900236012EADEF3FF00250836E030E29
:107F6A00026E8A0E016E560EE82EFED7012EFCD73F
:107F7A00022EFAD7044A052A05BECDEF3FF0055076
:107F8A0009E1080E045CD8A0CDEF3FF0CFEF3FF037
:107F9A00A6EF3FF01200800E036E000E056E000E73
:107FAA00046E04C001F003C002F0012ADFEF3FF0C3
:107FBA00D8900232012EDDEF3FF00250836E030E9D
:107FCA00026E8A0E016E560EE82EFED7012EFCD7DF
:107FDA00022EFAD7044A052A05BEFDEF3FF00550E6
:107FEA0009E1080E045CD8A0FDEF3FF0FFEF3FF077
:067FFA00D6EF3FF012007B
:020000040020DA
:08000000FFFFFFFFFFFFFFFF00
:020000040030CA
:0E000000000C191EFF8080FF0FC00FE00F40A4
:00000001FF
