:04000000BFEF3FF01F
:107F7E000001C2EF3FF0000E956E000E8C6E000EEB
:107F8E00956E010E8C6ED0EC3FF0CAEF3FF000EF15
:107F9E0000F0010E036E000E056E000E046E04C09E
:107FAE0001F003C002F0012ADFEF3FF0D890023655
:107FBE00012EDDEF3FF00250836E030E026E8A0E2D
:107FCE00016E560EE82EFED7012EFCD7022EFAD7E2
:107FDE00044A052A05BEFDEF3FF0055009E1080EE3
:107FEE00045CD8A0FDEF3FF0FFEF3FF0D6EF3FF07F
:027FFE0012006F
:020000040020DA
:08000000FFFFFFFFFFFFFFFF00
:020000040030CA
:0E000000000C191EFF8080FF0FC00FE00F40A4
:00000001FF
