:040000000CEF0AF007
:1008000000205049432063616C63756C61746F72A2
:100810000057726F6E672046756E6374696F6E0065
:0108200000D7
:10082200819081828184818681B81AEF04F01CEF65
:1008320004F031EF04F0030E026E8A0E016E560EC2
:10084200E82EFED7012EFCD7022EFAD781A82CEF74
:1008520004F02EEF04F027EF04F0370EE2EF05F07C
:1008620081BA36EF04F038EF04F04DEF04F0030ED6
:10087200026E8A0E016E560EE82EFED7012EFCD7AE
:10088200022EFAD781AA48EF04F04AEF04F043EFB0
:1008920004F0380EE2EF05F081BC52EF04F054EFA1
:1008A20004F069EF04F0030E026E8A0E016E560E1A
:1008B200E82EFED7012EFCD7022EFAD781AC64EFC8
:1008C20004F066EF04F05FEF04F0390EE2EF05F09A
:1008D20081BE6EEF04F070EF04F085EF04F0030EBA
:1008E200026E8A0E016E560EE82EFED7012EFCD73E
:1008F200022EFAD781AE80EF04F082EF04F07BEF94
:1009020004F02F0EE2EF05F08180819281848186CE
:1009120081B88EEF04F090EF04F0A5EF04F0030E1F
:10092200026E8A0E016E560EE82EFED7012EFCD7FD
:10093200022EFAD781A8A0EF04F0A2EF04F09BEFF9
:1009420004F0340EE2EF05F081BAAAEF04F0ACEF46
:1009520004F0C1EF04F0030E026E8A0E016E560E11
:10096200E82EFED7012EFCD7022EFAD781AABCEFC1
:1009720004F0BEEF04F0B7EF04F0350EE2EF05F03D
:1009820081BCC6EF04F0C8EF04F0DDEF04F0030E03
:10099200026E8A0E016E560EE82EFED7012EFCD78D
:1009A200022EFAD781ACD8EF04F0DAEF04F0D3EFDD
:1009B20004F0360EE2EF05F081BEE2EF04F0E4EF60
:1009C20004F0F9EF04F0030E026E8A0E016E560E69
:1009D200E82EFED7012EFCD7022EFAD781AEF4EF15
:1009E20004F0F6EF04F0EFEF04F02A0EE2EF05F068
:1009F200818081828194818681B802EF05F004EFC3
:100A020005F019EF05F0030E026E8A0E016E560E06
:100A1200E82EFED7012EFCD7022EFAD781A814EFBA
:100A220005F016EF05F00FEF05F0310EE2EF05F0DD
:100A320081BA1EEF05F020EF05F035EF05F0030E49
:100A4200026E8A0E016E560EE82EFED7012EFCD7DC
:100A5200022EFAD781AA30EF05F032EF05F02BEF24
:100A620005F0320EE2EF05F081BC3AEF05F03CEF03
:100A720005F051EF05F0030E026E8A0E016E560E5E
:100A8200E82EFED7012EFCD7022EFAD781AC4CEF0E
:100A920005F04EEF05F047EF05F0330EE2EF05F0FB
:100AA20081BE56EF05F058EF05F06DEF05F0030E2D
:100AB200026E8A0E016E560EE82EFED7012EFCD76C
:100AC200022EFAD781AE68EF05F06AEF05F063EF08
:100AD20005F02D0EE2EF05F08180818281848196FE
:100AE20081B876EF05F078EF05F08DEF05F0030E93
:100AF200026E8A0E016E560EE82EFED7012EFCD72C
:100B0200022EFAD781A888EF05F08AEF05F083EF6D
:100B120005F0630EE2EF05F081BA92EF05F094EF73
:100B220005F0A9EF05F0030E026E8A0E016E560E55
:100B3200E82EFED7012EFCD7022EFAD781AAA4EF07
:100B420005F0A6EF05F09FEF05F0300EE2EF05F09D
:100B520081BCAEEF05F0B0EF05F0C5EF05F0030E76
:100B6200026E8A0E016E560EE82EFED7012EFCD7BB
:100B7200022EFAD781ACC0EF05F0C2EF05F0BBEF51
:100B820005F03D0EE2EF05F081BECAEF05F0CCEFB5
:100B920005F0E1EF05F0030E026E8A0E016E560EAD
:100BA200E82EFED7012EFCD7022EFAD781AEDCEF5B
:100BB20005F0DEEF05F0D7EF05F02B0EE2EF05F0C2
:100BC2006E0E1200720ED36E7DEC09F0010E056EF0
:100BD200080E066E12EC09F00D0E0F6EAF0E0E6EC1
:100BE200B60EE82EFED70E2EFCD70F2EFAD700D067
:100BF200010E5EEC09F006EC0AF0F4EC09F0136E5B
:100C02001350B4EC09F0135094EC07F001C015F046
:100C120002C016F0630E1318D8A412EF06F014EFF8
:100C220006F019EF06F0010E5EEC09F0FEEF05F09A
:100C320015501610D8B420EF06F022EF06F07BEF25
:100C420006F015041610D8B429EF06F02BEF06F0C3
:100C52007BEF06F0020E15181610D8B433EF06F02B
:100C620035EF06F07BEF06F0030E15181610D8B418
:100C72003DEF06F03FEF06F07BEF06F0040E15188D
:100C82001610D8B447EF06F049EF06F07BEF06F0F6
:100C9200050E15181610D8B451EF06F053EF06F0F2
:100CA2007BEF06F0060E15181610D8B45BEF06F0AF
:100CB2005DEF06F07BEF06F0070E15181610D8B49C
:100CC20065EF06F067EF06F07BEF06F0080E1518E9
:100CD2001610D8B46FEF06F071EF06F07BEF06F056
:100CE200090E15181610D8A479EF06F07BEF06F05E
:100CF20037EF07F0F4EC09F0146E1450B4EC09F07D
:100D020014C012F02B0E1418D8A48AEF06F08CEF40
:100D120006F0A7EF06F02D0E1418D8A493EF06F0F4
:100D220095EF06F0A7EF06F02A0E1418D8A49CEF50
:100D320006F09EEF06F0A7EF06F02F0E1418D8B4B7
:100D4200A5EF06F0A7EF06F037EF07F0F4EC09F095
:100D5200106E1050B4EC09F0105094EC07F001C082
:100D620017F002C018F017501810D8B4BBEF06F0F5
:100D7200BDEF06F016EF07F017041810D8B4C4EF51
:100D820006F0C6EF06F016EF07F0020E171818105D
:100D9200D8B4CEEF06F0D0EF06F016EF07F0030E50
:100DA20017181810D8B4D8EF06F0DAEF06F016EFDD
:100DB20007F0040E17181810D8B4E2EF06F0E4EFAB
:100DC20006F016EF07F0050E17181810D8B4ECEF5E
:100DD20006F0EEEF06F016EF07F0060E17181810E1
:100DE200D8B4F6EF06F0F8EF06F016EF07F0070EAC
:100DF20017181810D8B400EF07F002EF07F016EF3B
:100E020007F0080E17181810D8B40AEF07F00CEF05
:100E120007F016EF07F0090E17181810D8A414EFF0
:100E220007F016EF07F0FEEF05F0F4EC09F0116E93
:100E32001150B4EC09F03D0E1118D8A423EF07F0BD
:100E420025EF07F037EF07F02F0E1218D8A42CEF7A
:100E520007F02EEF07F073EF07F017501810D8A421
:100E620035EF07F037EF07F073EF07F099EC09F071
:100E7200FEEF05F0175015240B6E185016200C6E5D
:100E82003AEC09F0FEEF05F01750155C0B6E1850A6
:100E920016580C6E3AEC09F0FEEF05F015C001F0A1
:100EA20016C002F017C003F018C004F0E1EC09F01C
:100EB20001C00BF002C00CF03AEC09F0FEEF05F0B5
:100EC20015C001F016C002F017C003F018C004F0FC
:100ED20077EC08F001C00BF002C00CF03AEC09F01C
:100EE200FEEF05F012500E6E0F6A0F50000AD8B4D2
:100EF2007DEF07F090EF07F00E502A0AD8B44FEFBB
:100F020007F0010AD8B43BEF07F0060AD8B445EF60
:100F120007F0020AD8B461EF07F090EF07F0FEEF96
:100F220005F000EF00F0056E000E076E000E066E73
:100F3200D7EF07F0000E076E000E066E0CEF08F0FA
:100F4200000E076E010E066E0CEF08F0000E076E23
:100F5200020E066E0CEF08F0000E076E030E066E10
:100F62000CEF08F0000E076E040E066E0CEF08F090
:100F7200000E076E050E066E0CEF08F0000E076EEF
:100F8200060E066E0CEF08F0000E076E070E066ED8
:100F92000CEF08F0000E076E080E066E0CEF08F05C
:100FA200000E076E090E066E0CEF08F00550036E78
:100FB200046A0450000AD8B4E1EF07F00CEF08F01D
:100FC2000350300AD8B49BEF07F0010AD8B4A1EF5E
:100FD20007F0030AD8B4A7EF07F0010AD8B4ADEFBF
:100FE20007F0070AD8B4B3EF07F0010AD8B4B9EF93
:100FF20007F0030AD8B4BFEF07F0010AD8B4C5EF6F
:1010020007F00F0AD8B4CBEF07F0010AD8B4D1EF3A
:1010120007F00CEF08F006C001F007C002F0120062
:10102200000E056E3DEF08F0300E056E73EF08F00E
:10103200310E056E73EF08F0320E056E73EF08F095
:10104200330E056E73EF08F0340E056E73EF08F081
:10105200350E056E73EF08F0360E056E73EF08F06D
:10106200370E056E73EF08F0380E056E73EF08F059
:10107200390E056E73EF08F001C003F002C004F0F0
:101082000450000AD8B448EF08F073EF08F0035098
:10109200000AD8B415EF08F0010AD8B419EF08F025
:1010A200030AD8B41DEF08F0010AD8B421EF08F002
:1010B200070AD8B425EF08F0010AD8B429EF08F0DE
:1010C200030AD8B42DEF08F0010AD8B431EF08F0C2
:1010D2000F0AD8B435EF08F0010AD8B439EF08F096
:1010E20073EF08F005C001F0026A1200000E066EEE
:1010F20004BE80EF08F07EEF08F086EF08F0036C84
:10110200041ED8B0042A010E066E02BE8DEF08F04E
:101112008BEF08F093EF08F0016C021ED8B0022AA0
:10112200010E061A000E086E000E076E0350041020
:10113200D8B49EEF08F0A0EF08F0C8EF08F0010E57
:10114200056EA8EF08F0D89003360436052A04AEDF
:10115200ADEF08F0AFEF08F0A4EF08F0D890073633
:1011620008360350015C04500258D8A0BBEF08F0C7
:10117200BDEF08F0C2EF08F00350015E0450025ABE
:101182000780D89004320332052EAFEF08F00650E4
:10119200D8B4CEEF08F0D0EF08F0D4EF08F0076C27
:1011A200081ED8B0082A07C001F008C002F01200D9
:1011B2000A6E020E0560E0EF08F0E2EF08F011EFB0
:1011C20009F00F0E0A64E8EF08F0EAEF08F0ECEF1E
:1011D20008F011EF09F00504D8B4F2EF08F0F4EFCB
:1011E20008F0FEEF08F0800E0AC006F0076A06104B
:1011F200086E0750096E06EF09F0C00E0AC006F02D
:10120200076A0610086E0750096E08505EEC09F076
:10121200210E066E760EE82EFED7062EFCD700D0E3
:101222001200000E096E25EF09F009500524076E21
:10123200000E0620086E07C0F6FF08C0F7FF080080
:10124200F550B4EC09F0092A09500524076E000E86
:101252000620086E07C0F6FF08C0F7FF0800F55029
:101262000009D8A437EF09F039EF09F016EF09F0B9
:101272001200000E0D6E0CBE43EF09F041EF09F0B3
:101282004FEF09F0010E056E0E0ED9EC08F00B6C53
:101292000C1ED8B00C2A2D0EB4EC09F0010E056E0E
:1012A2000F0ED9EC08F00BC001F00CC002F011ECEB
:1012B20008F00150B4EC09F01200046E210E036E26
:1012C200760EE82EFED7032EFCD700D0000E016E5C
:1012D2000450CBEC09F00438F00B046E070E036ED9
:1012E2007D0EE82EFED7032EFCD700F0000E016E15
:1012F2000450CBEC09F01200000E836E000E956EC6
:10130200838E620E056E660EE82EFED7052EFCD782
:10131200320E5EEC09F0280E5EEC09F00C0E5EEC6B
:1013220009F0010E5EEC09F0060E5EEC09F0120007
:10133200010E056E010ED9EC08F0110E056E080EB5
:10134200066E12EC09F00D0E0C6EAF0E0B6EB60EA1
:10135200E82EFED70B2EFCD70C2EFAD700D0010EAA
:101362005EEC09F01200046E210E036E760EE82E7A
:10137200FED7032EFCD700D0010E016E0450CBEC39
:1013820009F00438F00B046E010E016E0450CBEC30
:1013920009F01200026E02380F0B026E02500F0BA0
:1013A200026E8350F00B836E83500210836E01B085
:1013B20002D0839801D08388839A838C839C120005
:1013C20001500302F3CF05F0F4CF06F001500402FE
:1013D200F350062602500302F350062605C001F020
:1013E20006C002F012006E0E036EFBEF09F011EC64
:1013F20004F0036E6E0E0318D8B402EF0AF004EF85
:101402000AF0F8EF09F003501200000E816EF00EA0
:10141200936EF19E1200000EF86E0001E3EF05F0EC
:020000040020DA
:08000000FFFFFFFFFFFFFFFF00
:020000040030CA
:0E000000000C191FFF0080FF0FC00FE00F4023
:00000001FF
