:04000000F3EF04F026
:100800000020205472616E205669657420416E206C
:100810002000564B55202D204B3139202D204345AB
:1008200000000A6E020E056018EF04F01AEF04F0E3
:1008300049EF04F00F0E0A6420EF04F022EF04F0F9
:1008400024EF04F049EF04F00504D8B42AEF04F0D3
:100850002CEF04F036EF04F0800E0AC006F0076AB1
:100860000610086E0750096E3EEF04F0C00E0AC075
:1008700006F0076A0610086E0750096E085072EC01
:1008800004F0210E066E760EE82EFED7062EFCD75B
:1008900000D01200000E096E5DEF04F0095005242F
:1008A000076E000E0620086E07C0F6FF08C0F7FFAF
:1008B0000800F550C6EC04F0092A09500524076E1B
:1008C000000E0620086E07C0F6FF08C0F7FF0800FC
:1008D000F5500009D8A46FEF04F071EF04F04EEF6B
:1008E00004F01200046E210E036E760EE82EFED781
:1008F000032EFCD700D0000E016E0450DDEC04F096
:100900000438F00B046E070E036E7D0EE82EFED742
:10091000032EFCD700F0000E016E0450DDEC04F055
:100920001200000E836E000E956E838E620E056EB1
:10093000660EE82EFED7052EFCD7320E72EC04F0C0
:10094000280E72EC04F00C0E72EC04F0010E72EC46
:1009500004F0060E72EC04F01200720ED36E91ECED
:1009600004F0010E056E080E066E4AEC04F0010E4E
:10097000056E010E11EC04F0120E056E080E066EE7
:100980004AEC04F0C2EF04F000EF00F0046E210E18
:10099000036E760EE82EFED7032EFCD700D0010E94
:1009A000016E0450DDEC04F00438F00B046E010E0F
:1009B000016E0450DDEC04F01200026E02380F0BE1
:1009C000026E02500F0B026E8350F00B836E835049
:1009D0000210836E01B002D0839801D08388839A7D
:1009E000838C839C1200000EF86E080EF76E0001D7
:0409F000ADEF04F073
:020000040020DA
:08000000FFFFFFFFFFFFFFFF00
:020000040030CA
:0E00000000051F1FFF8385FF0FC00FE00F409C
:00000001FF
